{
  "contractName": "AllowanceRegistry",
  "abi": [
    {
      "constant": true,
      "inputs": [
        {
          "name": "",
          "type": "address"
        }
      ],
      "name": "registrars",
      "outputs": [
        {
          "name": "",
          "type": "bool"
        }
      ],
      "payable": false,
      "stateMutability": "view",
      "type": "function"
    },
    {
      "constant": true,
      "inputs": [],
      "name": "owner",
      "outputs": [
        {
          "name": "",
          "type": "address"
        }
      ],
      "payable": false,
      "stateMutability": "view",
      "type": "function"
    },
    {
      "constant": true,
      "inputs": [
        {
          "name": "",
          "type": "address"
        }
      ],
      "name": "allowed",
      "outputs": [
        {
          "name": "",
          "type": "bool"
        }
      ],
      "payable": false,
      "stateMutability": "view",
      "type": "function"
    },
    {
      "constant": false,
      "inputs": [
        {
          "name": "_registar",
          "type": "address"
        },
        {
          "name": "_value",
          "type": "bool"
        }
      ],
      "name": "setRegistrar",
      "outputs": [],
      "payable": false,
      "stateMutability": "nonpayable",
      "type": "function"
    },
    {
      "constant": false,
      "inputs": [
        {
          "name": "_user",
          "type": "address"
        }
      ],
      "name": "isAllowed",
      "outputs": [
        {
          "name": "_isAllowed",
          "type": "bool"
        }
      ],
      "payable": false,
      "stateMutability": "nonpayable",
      "type": "function"
    }
  ],
  "bytecode": "0x6060604052341561000f57600080fd5b61039b8061001e6000396000f30060606040526004361061006d576000357c0100000000000000000000000000000000000000000000000000000000900463ffffffff16806389aeca76146100725780638da5cb5b146100c3578063babcc53914610118578063c1bf1dcf14610169578063d63a8e11146101ad575b600080fd5b341561007d57600080fd5b6100a9600480803573ffffffffffffffffffffffffffffffffffffffff169060200190919050506101fe565b604051808215151515815260200191505060405180910390f35b34156100ce57600080fd5b6100d661021e565b604051808273ffffffffffffffffffffffffffffffffffffffff1673ffffffffffffffffffffffffffffffffffffffff16815260200191505060405180910390f35b341561012357600080fd5b61014f600480803573ffffffffffffffffffffffffffffffffffffffff16906020019091905050610243565b604051808215151515815260200191505060405180910390f35b341561017457600080fd5b6101ab600480803573ffffffffffffffffffffffffffffffffffffffff169060200190919080351515906020019091905050610299565b005b34156101b857600080fd5b6101e4600480803573ffffffffffffffffffffffffffffffffffffffff1690602001909190505061034f565b604051808215151515815260200191505060405180910390f35b60016020528060005260406000206000915054906101000a900460ff1681565b6000809054906101000a900473ffffffffffffffffffffffffffffffffffffffff1681565b6000600260008373ffffffffffffffffffffffffffffffffffffffff1673ffffffffffffffffffffffffffffffffffffffff16815260200190815260200160002060009054906101000a900460ff169050919050565b6000809054906101000a900473ffffffffffffffffffffffffffffffffffffffff1673ffffffffffffffffffffffffffffffffffffffff163373ffffffffffffffffffffffffffffffffffffffff161415156102f457600080fd5b80600160008473ffffffffffffffffffffffffffffffffffffffff1673ffffffffffffffffffffffffffffffffffffffff16815260200190815260200160002060006101000a81548160ff0219169083151502179055505050565b60026020528060005260406000206000915054906101000a900460ff16815600a165627a7a72305820099c15be766a208afa27e04b878c9ded9c10eb3cbacd5f22f500fcee4525f4fe0029",
  "source": "pragma solidity ^0.4.18;\n\nimport \"./AllowanceRegistryInterface.sol\";\n\ncontract AllowanceRegistry is AllowanceRegistryInterface {\n    \n    address public owner;\n    mapping (address => bool) public registrars;\n    mapping (address => bool) public allowed;\n\n    modifier onlyOwner {\n        require(msg.sender == owner);\n        _;\n    }\n\n    function setRegistrar(address _registar, bool _value) public onlyOwner {\n        registrars[_registar] =_value;\n    }\n    \n\n    function isAllowed(address _user) public returns(bool _isAllowed){\n        return allowed[_user];\n    }\n\n\n}\n",
  "sourcePath": "/home/ajunge/work/ajunge/cclp/contracts/AllowanceRegistry.sol",
  "compiler": {
    "name": "solc",
    "version": "0.4.21+commit.dfe3193c.Emscripten.clang"
  },
  "schemaVersion": "2.0.0",
  "updatedAt": "2018-04-02T15:34:17.410Z"
}