{
  "contractName": "AllowanceRegistry",
  "abi": [
    {
      "constant": true,
      "inputs": [
        {
          "name": "",
          "type": "address"
        }
      ],
      "name": "registrars",
      "outputs": [
        {
          "name": "",
          "type": "bool"
        }
      ],
      "payable": false,
      "stateMutability": "view",
      "type": "function"
    },
    {
      "constant": true,
      "inputs": [],
      "name": "owner",
      "outputs": [
        {
          "name": "",
          "type": "address"
        }
      ],
      "payable": false,
      "stateMutability": "view",
      "type": "function"
    },
    {
      "constant": true,
      "inputs": [
        {
          "name": "",
          "type": "address"
        }
      ],
      "name": "allowed",
      "outputs": [
        {
          "name": "",
          "type": "bool"
        }
      ],
      "payable": false,
      "stateMutability": "view",
      "type": "function"
    },
    {
      "inputs": [
        {
          "name": "_owner",
          "type": "address"
        }
      ],
      "payable": false,
      "stateMutability": "nonpayable",
      "type": "constructor"
    },
    {
      "constant": false,
      "inputs": [
        {
          "name": "_newOwner",
          "type": "address"
        }
      ],
      "name": "changeOwner",
      "outputs": [],
      "payable": false,
      "stateMutability": "nonpayable",
      "type": "function"
    },
    {
      "constant": false,
      "inputs": [
        {
          "name": "_registar",
          "type": "address"
        },
        {
          "name": "_value",
          "type": "bool"
        }
      ],
      "name": "setRegistrar",
      "outputs": [],
      "payable": false,
      "stateMutability": "nonpayable",
      "type": "function"
    },
    {
      "constant": false,
      "inputs": [
        {
          "name": "_user",
          "type": "address"
        }
      ],
      "name": "allowUser",
      "outputs": [],
      "payable": false,
      "stateMutability": "nonpayable",
      "type": "function"
    },
    {
      "constant": false,
      "inputs": [
        {
          "name": "_user",
          "type": "address"
        }
      ],
      "name": "denyUser",
      "outputs": [],
      "payable": false,
      "stateMutability": "nonpayable",
      "type": "function"
    },
    {
      "constant": false,
      "inputs": [
        {
          "name": "_user",
          "type": "address"
        }
      ],
      "name": "isAllowed",
      "outputs": [
        {
          "name": "_isAllowed",
          "type": "bool"
        }
      ],
      "payable": false,
      "stateMutability": "nonpayable",
      "type": "function"
    }
  ],
  "bytecode": "0x6060604052341561000f57600080fd5b60405160208061070c8339810160405280805190602001909190505060008173ffffffffffffffffffffffffffffffffffffffff161415151561005157600080fd5b806000806101000a81548173ffffffffffffffffffffffffffffffffffffffff021916908373ffffffffffffffffffffffffffffffffffffffff1602179055505061066b806100a16000396000f30060606040526004361061008e576000357c0100000000000000000000000000000000000000000000000000000000900463ffffffff16806348e071d414610093578063771c456f146100cc57806389aeca76146101055780638da5cb5b14610156578063a6f9dae1146101ab578063babcc539146101e4578063c1bf1dcf14610235578063d63a8e1114610279575b600080fd5b341561009e57600080fd5b6100ca600480803573ffffffffffffffffffffffffffffffffffffffff169060200190919050506102ca565b005b34156100d757600080fd5b610103600480803573ffffffffffffffffffffffffffffffffffffffff1690602001909190505061037d565b005b341561011057600080fd5b61013c600480803573ffffffffffffffffffffffffffffffffffffffff16906020019091905050610430565b604051808215151515815260200191505060405180910390f35b341561016157600080fd5b610169610450565b604051808273ffffffffffffffffffffffffffffffffffffffff1673ffffffffffffffffffffffffffffffffffffffff16815260200191505060405180910390f35b34156101b657600080fd5b6101e2600480803573ffffffffffffffffffffffffffffffffffffffff16906020019091905050610475565b005b34156101ef57600080fd5b61021b600480803573ffffffffffffffffffffffffffffffffffffffff16906020019091905050610513565b604051808215151515815260200191505060405180910390f35b341561024057600080fd5b610277600480803573ffffffffffffffffffffffffffffffffffffffff169060200190919080351515906020019091905050610569565b005b341561028457600080fd5b6102b0600480803573ffffffffffffffffffffffffffffffffffffffff1690602001909190505061061f565b604051808215151515815260200191505060405180910390f35b600160003373ffffffffffffffffffffffffffffffffffffffff1673ffffffffffffffffffffffffffffffffffffffff16815260200190815260200160002060009054906101000a900460ff16151561032257600080fd5b6000600260008373ffffffffffffffffffffffffffffffffffffffff1673ffffffffffffffffffffffffffffffffffffffff16815260200190815260200160002060006101000a81548160ff02191690831515021790555050565b600160003373ffffffffffffffffffffffffffffffffffffffff1673ffffffffffffffffffffffffffffffffffffffff16815260200190815260200160002060009054906101000a900460ff1615156103d557600080fd5b6001600260008373ffffffffffffffffffffffffffffffffffffffff1673ffffffffffffffffffffffffffffffffffffffff16815260200190815260200160002060006101000a81548160ff02191690831515021790555050565b60016020528060005260406000206000915054906101000a900460ff1681565b6000809054906101000a900473ffffffffffffffffffffffffffffffffffffffff1681565b6000809054906101000a900473ffffffffffffffffffffffffffffffffffffffff1673ffffffffffffffffffffffffffffffffffffffff163373ffffffffffffffffffffffffffffffffffffffff161415156104d057600080fd5b806000806101000a81548173ffffffffffffffffffffffffffffffffffffffff021916908373ffffffffffffffffffffffffffffffffffffffff16021790555050565b6000600260008373ffffffffffffffffffffffffffffffffffffffff1673ffffffffffffffffffffffffffffffffffffffff16815260200190815260200160002060009054906101000a900460ff169050919050565b6000809054906101000a900473ffffffffffffffffffffffffffffffffffffffff1673ffffffffffffffffffffffffffffffffffffffff163373ffffffffffffffffffffffffffffffffffffffff161415156105c457600080fd5b80600160008473ffffffffffffffffffffffffffffffffffffffff1673ffffffffffffffffffffffffffffffffffffffff16815260200190815260200160002060006101000a81548160ff0219169083151502179055505050565b60026020528060005260406000206000915054906101000a900460ff16815600a165627a7a7230582037f7ff2011a984c221adaa9ebe69ea843e59e7875bac7444960fbdb5521700480029",
  "source": "pragma solidity ^0.4.18;\n\nimport \"./AllowanceRegistryInterface.sol\";\n\ncontract AllowanceRegistry is AllowanceRegistryInterface {\n    \n    address public owner;\n    mapping (address => bool) public registrars;\n    mapping (address => bool) public allowed;\n\n    modifier onlyOwner {\n        require(msg.sender == owner);\n        _;\n    }\n\n    modifier onlyRegistrar {\n        require(registrars[msg.sender]);\n        _;\n    }\n\n    function AllowanceRegistry(\n        address _owner\n    ) public\n    {\n        require(_owner != 0);\n        owner = _owner; \n    }\n\n    function changeOwner(address _newOwner) public onlyOwner {\n        owner = _newOwner;\n    }\n\n    function setRegistrar(address _registar, bool _value) public onlyOwner {\n        registrars[_registar] =_value;\n    }\n\n    function allowUser(address _user) public onlyRegistrar {\n        allowed[_user] = true;\n    }\n\n    function denyUser(address _user) public onlyRegistrar {\n        allowed[_user] = false;\n    }\n\n\n    function isAllowed(address _user) public returns(bool _isAllowed){\n        return allowed[_user];\n    }\n\n\n}\n",
  "sourcePath": "/home/ajunge/work/ajunge/cclp/contracts/AllowanceRegistry.sol",
  "compiler": {
    "name": "solc",
    "version": "0.4.21+commit.dfe3193c.Emscripten.clang"
  },
  "schemaVersion": "2.0.0",
  "updatedAt": "2018-04-02T19:28:34.142Z"
}