{
  "contractName": "ControlledSupplyToken",
  "abi": [
    {
      "constant": true,
      "inputs": [],
      "name": "totalSupply",
      "outputs": [
        {
          "name": "",
          "type": "uint256"
        }
      ],
      "payable": false,
      "stateMutability": "view",
      "type": "function"
    },
    {
      "constant": true,
      "inputs": [
        {
          "name": "_owner",
          "type": "address"
        }
      ],
      "name": "balanceOf",
      "outputs": [
        {
          "name": "balance",
          "type": "uint256"
        }
      ],
      "payable": false,
      "stateMutability": "view",
      "type": "function"
    },
    {
      "constant": false,
      "inputs": [
        {
          "name": "_to",
          "type": "address"
        },
        {
          "name": "_value",
          "type": "uint256"
        }
      ],
      "name": "transfer",
      "outputs": [
        {
          "name": "",
          "type": "bool"
        }
      ],
      "payable": false,
      "stateMutability": "nonpayable",
      "type": "function"
    },
    {
      "constant": true,
      "inputs": [],
      "name": "supplyController",
      "outputs": [
        {
          "name": "",
          "type": "address"
        }
      ],
      "payable": false,
      "stateMutability": "view",
      "type": "function"
    },
    {
      "inputs": [
        {
          "name": "_supplyController",
          "type": "address"
        }
      ],
      "payable": false,
      "stateMutability": "nonpayable",
      "type": "constructor"
    },
    {
      "anonymous": false,
      "inputs": [
        {
          "indexed": true,
          "name": "from",
          "type": "address"
        },
        {
          "indexed": true,
          "name": "to",
          "type": "address"
        },
        {
          "indexed": false,
          "name": "value",
          "type": "uint256"
        }
      ],
      "name": "Transfer",
      "type": "event"
    },
    {
      "constant": false,
      "inputs": [
        {
          "name": "_newSupplyController",
          "type": "address"
        }
      ],
      "name": "changeSupplyController",
      "outputs": [],
      "payable": false,
      "stateMutability": "nonpayable",
      "type": "function"
    },
    {
      "constant": false,
      "inputs": [
        {
          "name": "value",
          "type": "uint256"
        },
        {
          "name": "to",
          "type": "address"
        }
      ],
      "name": "increaseSupply",
      "outputs": [],
      "payable": false,
      "stateMutability": "nonpayable",
      "type": "function"
    },
    {
      "constant": false,
      "inputs": [
        {
          "name": "value",
          "type": "uint256"
        },
        {
          "name": "from",
          "type": "address"
        }
      ],
      "name": "decreaseSupply",
      "outputs": [],
      "payable": false,
      "stateMutability": "nonpayable",
      "type": "function"
    }
  ],
  "bytecode": "0x6060604052341561000f57600080fd5b6040516020806109628339810160405280805190602001909190505060008173ffffffffffffffffffffffffffffffffffffffff161415151561005157600080fd5b80600260006101000a81548173ffffffffffffffffffffffffffffffffffffffff021916908373ffffffffffffffffffffffffffffffffffffffff160217905550506108c0806100a26000396000f300606060405260043610610083576000357c0100000000000000000000000000000000000000000000000000000000900463ffffffff168063124fc7e01461008857806318160ddd146100ca57806370a08231146100f3578063869e0e6014610140578063a4012b2114610182578063a9059cbb146101bb578063e7ba101214610215575b600080fd5b341561009357600080fd5b6100c8600480803590602001909190803573ffffffffffffffffffffffffffffffffffffffff1690602001909190505061026a565b005b34156100d557600080fd5b6100dd6103c8565b6040518082815260200191505060405180910390f35b34156100fe57600080fd5b61012a600480803573ffffffffffffffffffffffffffffffffffffffff169060200190919050506103d2565b6040518082815260200191505060405180910390f35b341561014b57600080fd5b610180600480803590602001909190803573ffffffffffffffffffffffffffffffffffffffff1690602001909190505061041a565b005b341561018d57600080fd5b6101b9600480803573ffffffffffffffffffffffffffffffffffffffff16906020019091905050610578565b005b34156101c657600080fd5b6101fb600480803573ffffffffffffffffffffffffffffffffffffffff16906020019091908035906020019091905050610618565b604051808215151515815260200191505060405180910390f35b341561022057600080fd5b610228610837565b604051808273ffffffffffffffffffffffffffffffffffffffff1673ffffffffffffffffffffffffffffffffffffffff16815260200191505060405180910390f35b600260009054906101000a900473ffffffffffffffffffffffffffffffffffffffff1673ffffffffffffffffffffffffffffffffffffffff163373ffffffffffffffffffffffffffffffffffffffff161415156102c657600080fd5b6102db8260015461085d90919063ffffffff16565b600181905550610332826000808473ffffffffffffffffffffffffffffffffffffffff1673ffffffffffffffffffffffffffffffffffffffff1681526020019081526020016000205461085d90919063ffffffff16565b6000808373ffffffffffffffffffffffffffffffffffffffff1673ffffffffffffffffffffffffffffffffffffffff168152602001908152602001600020819055508073ffffffffffffffffffffffffffffffffffffffff1660007fddf252ad1be2c89b69c2b068fc378daa952ba7f163c4a11628f55a4df523b3ef846040518082815260200191505060405180910390a35050565b6000600154905090565b60008060008373ffffffffffffffffffffffffffffffffffffffff1673ffffffffffffffffffffffffffffffffffffffff168152602001908152602001600020549050919050565b600260009054906101000a900473ffffffffffffffffffffffffffffffffffffffff1673ffffffffffffffffffffffffffffffffffffffff163373ffffffffffffffffffffffffffffffffffffffff1614151561047657600080fd5b6104c7826000808473ffffffffffffffffffffffffffffffffffffffff1673ffffffffffffffffffffffffffffffffffffffff1681526020019081526020016000205461087b90919063ffffffff16565b6000808373ffffffffffffffffffffffffffffffffffffffff1673ffffffffffffffffffffffffffffffffffffffff1681526020019081526020016000208190555061051e8260015461087b90919063ffffffff16565b60018190555060008173ffffffffffffffffffffffffffffffffffffffff167fddf252ad1be2c89b69c2b068fc378daa952ba7f163c4a11628f55a4df523b3ef846040518082815260200191505060405180910390a35050565b600260009054906101000a900473ffffffffffffffffffffffffffffffffffffffff1673ffffffffffffffffffffffffffffffffffffffff163373ffffffffffffffffffffffffffffffffffffffff161415156105d457600080fd5b80600260006101000a81548173ffffffffffffffffffffffffffffffffffffffff021916908373ffffffffffffffffffffffffffffffffffffffff16021790555050565b60008073ffffffffffffffffffffffffffffffffffffffff168373ffffffffffffffffffffffffffffffffffffffff161415151561065557600080fd5b6000803373ffffffffffffffffffffffffffffffffffffffff1673ffffffffffffffffffffffffffffffffffffffff1681526020019081526020016000205482111515156106a257600080fd5b6106f3826000803373ffffffffffffffffffffffffffffffffffffffff1673ffffffffffffffffffffffffffffffffffffffff1681526020019081526020016000205461087b90919063ffffffff16565b6000803373ffffffffffffffffffffffffffffffffffffffff1673ffffffffffffffffffffffffffffffffffffffff16815260200190815260200160002081905550610786826000808673ffffffffffffffffffffffffffffffffffffffff1673ffffffffffffffffffffffffffffffffffffffff1681526020019081526020016000205461085d90919063ffffffff16565b6000808573ffffffffffffffffffffffffffffffffffffffff1673ffffffffffffffffffffffffffffffffffffffff168152602001908152602001600020819055508273ffffffffffffffffffffffffffffffffffffffff163373ffffffffffffffffffffffffffffffffffffffff167fddf252ad1be2c89b69c2b068fc378daa952ba7f163c4a11628f55a4df523b3ef846040518082815260200191505060405180910390a36001905092915050565b600260009054906101000a900473ffffffffffffffffffffffffffffffffffffffff1681565b600080828401905083811015151561087157fe5b8091505092915050565b600082821115151561088957fe5b8183039050929150505600a165627a7a7230582066b336096a8396fd73228810f677e42566b91cf69849ed0c653c8770f8a7535d0029",
  "source": "pragma solidity 0.4.21;\n\nimport \"zeppelin-solidity/contracts/token/ERC20/BasicToken.sol\";\n\n\ncontract ControlledSupplyToken is BasicToken {\n\n    address public supplyController;\n  \n    modifier onlySupplyController {\n        require(msg.sender == supplyController);\n        _;\n    }\n\n    function ControlledSupplyToken(address _supplyController) \n        public\n    {\n        require(_supplyController != 0);\n        supplyController = _supplyController; \n    }\n\n    function changeSupplyController(address _newSupplyController) public onlySupplyController {\n        supplyController = _newSupplyController;\n    }\n\n    function increaseSupply(uint value, address to) public onlySupplyController {\n        totalSupply_ = totalSupply_.add(value);\n        balances[to] = balances[to].add(value);\n\n        emit Transfer(0, to, value);\n    }\n\n    function decreaseSupply(uint value, address from) public onlySupplyController {\n        balances[from] = balances[from].sub(value);\n        totalSupply_ = totalSupply_.sub(value);\n\n        emit Transfer(from, 0, value);\n    }\n\n}\n",
  "sourcePath": "/home/ajunge/work/cclp-project/cclp-contracts/contracts/ControlledSupplyToken.sol",
  "compiler": {
    "name": "solc",
    "version": "0.4.21+commit.dfe3193c.Emscripten.clang"
  },
  "schemaVersion": "2.0.0",
  "updatedAt": "2018-04-05T16:33:59.068Z"
}