{
  "contractName": "EIP20",
  "abi": [
    {
      "constant": true,
      "inputs": [],
      "name": "name",
      "outputs": [
        {
          "name": "",
          "type": "string"
        }
      ],
      "payable": false,
      "stateMutability": "view",
      "type": "function"
    },
    {
      "constant": true,
      "inputs": [],
      "name": "totalSupply",
      "outputs": [
        {
          "name": "",
          "type": "uint256"
        }
      ],
      "payable": false,
      "stateMutability": "view",
      "type": "function"
    },
    {
      "constant": true,
      "inputs": [
        {
          "name": "",
          "type": "address"
        }
      ],
      "name": "balances",
      "outputs": [
        {
          "name": "",
          "type": "uint256"
        }
      ],
      "payable": false,
      "stateMutability": "view",
      "type": "function"
    },
    {
      "constant": true,
      "inputs": [],
      "name": "decimals",
      "outputs": [
        {
          "name": "",
          "type": "uint8"
        }
      ],
      "payable": false,
      "stateMutability": "view",
      "type": "function"
    },
    {
      "constant": true,
      "inputs": [],
      "name": "MAX_UINT256",
      "outputs": [
        {
          "name": "",
          "type": "uint256"
        }
      ],
      "payable": false,
      "stateMutability": "view",
      "type": "function"
    },
    {
      "constant": true,
      "inputs": [
        {
          "name": "",
          "type": "address"
        },
        {
          "name": "",
          "type": "address"
        }
      ],
      "name": "allowed",
      "outputs": [
        {
          "name": "",
          "type": "uint256"
        }
      ],
      "payable": false,
      "stateMutability": "view",
      "type": "function"
    },
    {
      "constant": true,
      "inputs": [],
      "name": "symbol",
      "outputs": [
        {
          "name": "",
          "type": "string"
        }
      ],
      "payable": false,
      "stateMutability": "view",
      "type": "function"
    },
    {
      "inputs": [
        {
          "name": "_initialAmount",
          "type": "uint256"
        },
        {
          "name": "_tokenName",
          "type": "string"
        },
        {
          "name": "_decimalUnits",
          "type": "uint8"
        },
        {
          "name": "_tokenSymbol",
          "type": "string"
        }
      ],
      "payable": false,
      "stateMutability": "nonpayable",
      "type": "constructor"
    },
    {
      "anonymous": false,
      "inputs": [
        {
          "indexed": true,
          "name": "_from",
          "type": "address"
        },
        {
          "indexed": true,
          "name": "_to",
          "type": "address"
        },
        {
          "indexed": false,
          "name": "_value",
          "type": "uint256"
        }
      ],
      "name": "Transfer",
      "type": "event"
    },
    {
      "anonymous": false,
      "inputs": [
        {
          "indexed": true,
          "name": "_owner",
          "type": "address"
        },
        {
          "indexed": true,
          "name": "_spender",
          "type": "address"
        },
        {
          "indexed": false,
          "name": "_value",
          "type": "uint256"
        }
      ],
      "name": "Approval",
      "type": "event"
    },
    {
      "constant": false,
      "inputs": [
        {
          "name": "_to",
          "type": "address"
        },
        {
          "name": "_value",
          "type": "uint256"
        }
      ],
      "name": "transfer",
      "outputs": [
        {
          "name": "success",
          "type": "bool"
        }
      ],
      "payable": false,
      "stateMutability": "nonpayable",
      "type": "function"
    },
    {
      "constant": false,
      "inputs": [
        {
          "name": "_from",
          "type": "address"
        },
        {
          "name": "_to",
          "type": "address"
        },
        {
          "name": "_value",
          "type": "uint256"
        }
      ],
      "name": "transferFrom",
      "outputs": [
        {
          "name": "success",
          "type": "bool"
        }
      ],
      "payable": false,
      "stateMutability": "nonpayable",
      "type": "function"
    },
    {
      "constant": true,
      "inputs": [
        {
          "name": "_owner",
          "type": "address"
        }
      ],
      "name": "balanceOf",
      "outputs": [
        {
          "name": "balance",
          "type": "uint256"
        }
      ],
      "payable": false,
      "stateMutability": "view",
      "type": "function"
    },
    {
      "constant": false,
      "inputs": [
        {
          "name": "_spender",
          "type": "address"
        },
        {
          "name": "_value",
          "type": "uint256"
        }
      ],
      "name": "approve",
      "outputs": [
        {
          "name": "success",
          "type": "bool"
        }
      ],
      "payable": false,
      "stateMutability": "nonpayable",
      "type": "function"
    },
    {
      "constant": true,
      "inputs": [
        {
          "name": "_owner",
          "type": "address"
        },
        {
          "name": "_spender",
          "type": "address"
        }
      ],
      "name": "allowance",
      "outputs": [
        {
          "name": "remaining",
          "type": "uint256"
        }
      ],
      "payable": false,
      "stateMutability": "view",
      "type": "function"
    }
  ],
  "bytecode": "0x6060604052341561000f57600080fd5b604051610e29380380610e298339810160405280805190602001909190805182019190602001805190602001909190805182019190505083600160003373ffffffffffffffffffffffffffffffffffffffff1673ffffffffffffffffffffffffffffffffffffffff168152602001908152602001600020819055508360008190555082600390805190602001906100a79291906100e3565b5081600460006101000a81548160ff021916908360ff16021790555080600590805190602001906100d99291906100e3565b5050505050610188565b828054600181600116156101000203166002900490600052602060002090601f016020900481019282601f1061012457805160ff1916838001178555610152565b82800160010185558215610152579182015b82811115610151578251825591602001919060010190610136565b5b50905061015f9190610163565b5090565b61018591905b80821115610181576000816000905550600101610169565b5090565b90565b610c92806101976000396000f3006060604052600436106100ba576000357c0100000000000000000000000000000000000000000000000000000000900463ffffffff16806306fdde03146100bf578063095ea7b31461014d57806318160ddd146101a757806323b872dd146101d057806327e235e314610249578063313ce5671461029657806333a581d2146102c55780635c658165146102ee57806370a082311461035a57806395d89b41146103a7578063a9059cbb14610435578063dd62ed3e1461048f575b600080fd5b34156100ca57600080fd5b6100d26104fb565b6040518080602001828103825283818151815260200191508051906020019080838360005b838110156101125780820151818401526020810190506100f7565b50505050905090810190601f16801561013f5780820380516001836020036101000a031916815260200191505b509250505060405180910390f35b341561015857600080fd5b61018d600480803573ffffffffffffffffffffffffffffffffffffffff16906020019091908035906020019091905050610599565b604051808215151515815260200191505060405180910390f35b34156101b257600080fd5b6101ba61068b565b6040518082815260200191505060405180910390f35b34156101db57600080fd5b61022f600480803573ffffffffffffffffffffffffffffffffffffffff1690602001909190803573ffffffffffffffffffffffffffffffffffffffff16906020019091908035906020019091905050610691565b604051808215151515815260200191505060405180910390f35b341561025457600080fd5b610280600480803573ffffffffffffffffffffffffffffffffffffffff1690602001909190505061092b565b6040518082815260200191505060405180910390f35b34156102a157600080fd5b6102a9610943565b604051808260ff1660ff16815260200191505060405180910390f35b34156102d057600080fd5b6102d8610956565b6040518082815260200191505060405180910390f35b34156102f957600080fd5b610344600480803573ffffffffffffffffffffffffffffffffffffffff1690602001909190803573ffffffffffffffffffffffffffffffffffffffff1690602001909190505061097a565b6040518082815260200191505060405180910390f35b341561036557600080fd5b610391600480803573ffffffffffffffffffffffffffffffffffffffff1690602001909190505061099f565b6040518082815260200191505060405180910390f35b34156103b257600080fd5b6103ba6109e8565b6040518080602001828103825283818151815260200191508051906020019080838360005b838110156103fa5780820151818401526020810190506103df565b50505050905090810190601f1680156104275780820380516001836020036101000a031916815260200191505b509250505060405180910390f35b341561044057600080fd5b610475600480803573ffffffffffffffffffffffffffffffffffffffff16906020019091908035906020019091905050610a86565b604051808215151515815260200191505060405180910390f35b341561049a57600080fd5b6104e5600480803573ffffffffffffffffffffffffffffffffffffffff1690602001909190803573ffffffffffffffffffffffffffffffffffffffff16906020019091905050610bdf565b6040518082815260200191505060405180910390f35b60038054600181600116156101000203166002900480601f0160208091040260200160405190810160405280929190818152602001828054600181600116156101000203166002900480156105915780601f1061056657610100808354040283529160200191610591565b820191906000526020600020905b81548152906001019060200180831161057457829003601f168201915b505050505081565b600081600260003373ffffffffffffffffffffffffffffffffffffffff1673ffffffffffffffffffffffffffffffffffffffff16815260200190815260200160002060008573ffffffffffffffffffffffffffffffffffffffff1673ffffffffffffffffffffffffffffffffffffffff168152602001908152602001600020819055508273ffffffffffffffffffffffffffffffffffffffff163373ffffffffffffffffffffffffffffffffffffffff167f8c5be1e5ebec7d5bd14f71427d1e84f3dd0314c0f7b2291e5b200ac8c7c3b925846040518082815260200191505060405180910390a36001905092915050565b60005481565b600080600260008673ffffffffffffffffffffffffffffffffffffffff1673ffffffffffffffffffffffffffffffffffffffff16815260200190815260200160002060003373ffffffffffffffffffffffffffffffffffffffff1673ffffffffffffffffffffffffffffffffffffffff16815260200190815260200160002054905082600160008773ffffffffffffffffffffffffffffffffffffffff1673ffffffffffffffffffffffffffffffffffffffff16815260200190815260200160002054101580156107625750828110155b151561076d57600080fd5b82600160008673ffffffffffffffffffffffffffffffffffffffff1673ffffffffffffffffffffffffffffffffffffffff1681526020019081526020016000206000828254019250508190555082600160008773ffffffffffffffffffffffffffffffffffffffff1673ffffffffffffffffffffffffffffffffffffffff168152602001908152602001600020600082825403925050819055507fffffffffffffffffffffffffffffffffffffffffffffffffffffffffffffffff8110156108ba5782600260008773ffffffffffffffffffffffffffffffffffffffff1673ffffffffffffffffffffffffffffffffffffffff16815260200190815260200160002060003373ffffffffffffffffffffffffffffffffffffffff1673ffffffffffffffffffffffffffffffffffffffff168152602001908152602001600020600082825403925050819055505b8373ffffffffffffffffffffffffffffffffffffffff168573ffffffffffffffffffffffffffffffffffffffff167fddf252ad1be2c89b69c2b068fc378daa952ba7f163c4a11628f55a4df523b3ef856040518082815260200191505060405180910390a360019150509392505050565b60016020528060005260406000206000915090505481565b600460009054906101000a900460ff1681565b7fffffffffffffffffffffffffffffffffffffffffffffffffffffffffffffffff81565b6002602052816000526040600020602052806000526040600020600091509150505481565b6000600160008373ffffffffffffffffffffffffffffffffffffffff1673ffffffffffffffffffffffffffffffffffffffff168152602001908152602001600020549050919050565b60058054600181600116156101000203166002900480601f016020809104026020016040519081016040528092919081815260200182805460018160011615610100020316600290048015610a7e5780601f10610a5357610100808354040283529160200191610a7e565b820191906000526020600020905b815481529060010190602001808311610a6157829003601f168201915b505050505081565b600081600160003373ffffffffffffffffffffffffffffffffffffffff1673ffffffffffffffffffffffffffffffffffffffff1681526020019081526020016000205410151515610ad657600080fd5b81600160003373ffffffffffffffffffffffffffffffffffffffff1673ffffffffffffffffffffffffffffffffffffffff1681526020019081526020016000206000828254039250508190555081600160008573ffffffffffffffffffffffffffffffffffffffff1673ffffffffffffffffffffffffffffffffffffffff168152602001908152602001600020600082825401925050819055508273ffffffffffffffffffffffffffffffffffffffff163373ffffffffffffffffffffffffffffffffffffffff167fddf252ad1be2c89b69c2b068fc378daa952ba7f163c4a11628f55a4df523b3ef846040518082815260200191505060405180910390a36001905092915050565b6000600260008473ffffffffffffffffffffffffffffffffffffffff1673ffffffffffffffffffffffffffffffffffffffff16815260200190815260200160002060008373ffffffffffffffffffffffffffffffffffffffff1673ffffffffffffffffffffffffffffffffffffffff168152602001908152602001600020549050929150505600a165627a7a72305820a0a84337ffc8ad65eea2545aee03f42e7f5039d8f144fed0bbf31824f50e0bbe0029",
  "source": "/*\nImplements EIP20 token standard: https://github.com/ethereum/EIPs/blob/master/EIPS/eip-20.md\n*/\n\n\npragma solidity ^0.4.18;\n\nimport \"./EIP20Interface.sol\";\n\n\ncontract EIP20 is EIP20Interface {\n\n    uint256 constant public MAX_UINT256 = 2**256 - 1;\n    mapping (address => uint256) public balances;\n    mapping (address => mapping (address => uint256)) public allowed;\n    /*\n    NOTE:\n    The following variables are OPTIONAL vanities. One does not have to include them.\n    They allow one to customise the token contract & in no way influences the core functionality.\n    Some wallets/interfaces might not even bother to look at this information.\n    */\n    string public name;                   //fancy name: eg Simon Bucks\n    uint8 public decimals;                //How many decimals to show.\n    string public symbol;                 //An identifier: eg SBX\n\n    function EIP20(\n        uint256 _initialAmount,\n        string _tokenName,\n        uint8 _decimalUnits,\n        string _tokenSymbol\n    ) public {\n        balances[msg.sender] = _initialAmount;               // Give the creator all initial tokens\n        totalSupply = _initialAmount;                        // Update total supply\n        name = _tokenName;                                   // Set the name for display purposes\n        decimals = _decimalUnits;                            // Amount of decimals for display purposes\n        symbol = _tokenSymbol;                               // Set the symbol for display purposes\n    }\n\n    function transfer(address _to, uint256 _value) public returns (bool success) {\n        require(balances[msg.sender] >= _value);\n        balances[msg.sender] -= _value;\n        balances[_to] += _value;\n        emit Transfer(msg.sender, _to, _value);\n        return true;\n    }\n\n    function transferFrom(address _from, address _to, uint256 _value) public returns (bool success) {\n        uint256 allowance = allowed[_from][msg.sender];\n        require(balances[_from] >= _value && allowance >= _value);\n        balances[_to] += _value;\n        balances[_from] -= _value;\n        if (allowance < MAX_UINT256) {\n            allowed[_from][msg.sender] -= _value;\n        }\n        emit Transfer(_from, _to, _value);\n        return true;\n    }\n\n    function balanceOf(address _owner) public view returns (uint256 balance) {\n        return balances[_owner];\n    }\n\n    function approve(address _spender, uint256 _value) public returns (bool success) {\n        allowed[msg.sender][_spender] = _value;\n        emit Approval(msg.sender, _spender, _value);\n        return true;\n    }\n\n    function allowance(address _owner, address _spender) public view returns (uint256 remaining) {\n        return allowed[_owner][_spender];\n    }   \n}",
  "sourcePath": "/home/ajunge/work/ajunge/cclp/contracts/EIP20.sol",
  "compiler": {
    "name": "solc",
    "version": "0.4.21+commit.dfe3193c.Emscripten.clang"
  },
  "schemaVersion": "2.0.0",
  "updatedAt": "2018-04-02T15:34:17.426Z"
}