{
  "contractName": "EIP621",
  "abi": [
    {
      "constant": true,
      "inputs": [],
      "name": "name",
      "outputs": [
        {
          "name": "",
          "type": "string"
        }
      ],
      "payable": false,
      "stateMutability": "view",
      "type": "function"
    },
    {
      "constant": false,
      "inputs": [
        {
          "name": "_spender",
          "type": "address"
        },
        {
          "name": "_value",
          "type": "uint256"
        }
      ],
      "name": "approve",
      "outputs": [
        {
          "name": "success",
          "type": "bool"
        }
      ],
      "payable": false,
      "stateMutability": "nonpayable",
      "type": "function"
    },
    {
      "constant": true,
      "inputs": [],
      "name": "totalSupply",
      "outputs": [
        {
          "name": "",
          "type": "uint256"
        }
      ],
      "payable": false,
      "stateMutability": "view",
      "type": "function"
    },
    {
      "constant": false,
      "inputs": [
        {
          "name": "_from",
          "type": "address"
        },
        {
          "name": "_to",
          "type": "address"
        },
        {
          "name": "_value",
          "type": "uint256"
        }
      ],
      "name": "transferFrom",
      "outputs": [
        {
          "name": "success",
          "type": "bool"
        }
      ],
      "payable": false,
      "stateMutability": "nonpayable",
      "type": "function"
    },
    {
      "constant": true,
      "inputs": [
        {
          "name": "",
          "type": "address"
        }
      ],
      "name": "balances",
      "outputs": [
        {
          "name": "",
          "type": "uint256"
        }
      ],
      "payable": false,
      "stateMutability": "view",
      "type": "function"
    },
    {
      "constant": true,
      "inputs": [],
      "name": "decimals",
      "outputs": [
        {
          "name": "",
          "type": "uint8"
        }
      ],
      "payable": false,
      "stateMutability": "view",
      "type": "function"
    },
    {
      "constant": true,
      "inputs": [],
      "name": "MAX_UINT256",
      "outputs": [
        {
          "name": "",
          "type": "uint256"
        }
      ],
      "payable": false,
      "stateMutability": "view",
      "type": "function"
    },
    {
      "constant": true,
      "inputs": [
        {
          "name": "",
          "type": "address"
        },
        {
          "name": "",
          "type": "address"
        }
      ],
      "name": "allowed",
      "outputs": [
        {
          "name": "",
          "type": "uint256"
        }
      ],
      "payable": false,
      "stateMutability": "view",
      "type": "function"
    },
    {
      "constant": true,
      "inputs": [
        {
          "name": "_owner",
          "type": "address"
        }
      ],
      "name": "balanceOf",
      "outputs": [
        {
          "name": "balance",
          "type": "uint256"
        }
      ],
      "payable": false,
      "stateMutability": "view",
      "type": "function"
    },
    {
      "constant": true,
      "inputs": [],
      "name": "symbol",
      "outputs": [
        {
          "name": "",
          "type": "string"
        }
      ],
      "payable": false,
      "stateMutability": "view",
      "type": "function"
    },
    {
      "constant": false,
      "inputs": [
        {
          "name": "_to",
          "type": "address"
        },
        {
          "name": "_value",
          "type": "uint256"
        }
      ],
      "name": "transfer",
      "outputs": [
        {
          "name": "success",
          "type": "bool"
        }
      ],
      "payable": false,
      "stateMutability": "nonpayable",
      "type": "function"
    },
    {
      "constant": true,
      "inputs": [
        {
          "name": "_owner",
          "type": "address"
        },
        {
          "name": "_spender",
          "type": "address"
        }
      ],
      "name": "allowance",
      "outputs": [
        {
          "name": "remaining",
          "type": "uint256"
        }
      ],
      "payable": false,
      "stateMutability": "view",
      "type": "function"
    },
    {
      "inputs": [
        {
          "name": "_initialAmount",
          "type": "uint256"
        },
        {
          "name": "_tokenName",
          "type": "string"
        },
        {
          "name": "_decimalUnits",
          "type": "uint8"
        },
        {
          "name": "_tokenSymbol",
          "type": "string"
        }
      ],
      "payable": false,
      "stateMutability": "nonpayable",
      "type": "constructor"
    },
    {
      "anonymous": false,
      "inputs": [
        {
          "indexed": true,
          "name": "_from",
          "type": "address"
        },
        {
          "indexed": true,
          "name": "_to",
          "type": "address"
        },
        {
          "indexed": false,
          "name": "_value",
          "type": "uint256"
        }
      ],
      "name": "Transfer",
      "type": "event"
    },
    {
      "anonymous": false,
      "inputs": [
        {
          "indexed": true,
          "name": "_owner",
          "type": "address"
        },
        {
          "indexed": true,
          "name": "_spender",
          "type": "address"
        },
        {
          "indexed": false,
          "name": "_value",
          "type": "uint256"
        }
      ],
      "name": "Approval",
      "type": "event"
    },
    {
      "constant": false,
      "inputs": [
        {
          "name": "value",
          "type": "uint256"
        },
        {
          "name": "to",
          "type": "address"
        }
      ],
      "name": "increaseSupply",
      "outputs": [],
      "payable": false,
      "stateMutability": "nonpayable",
      "type": "function"
    },
    {
      "constant": false,
      "inputs": [
        {
          "name": "value",
          "type": "uint256"
        },
        {
          "name": "from",
          "type": "address"
        }
      ],
      "name": "decreaseSupply",
      "outputs": [],
      "payable": false,
      "stateMutability": "nonpayable",
      "type": "function"
    }
  ],
  "bytecode": "0x606060405234156200001057600080fd5b6040516200111d3803806200111d833981016040528080519060200190919080518201919060200180519060200190919080518201919050508383838383600160003373ffffffffffffffffffffffffffffffffffffffff1673ffffffffffffffffffffffffffffffffffffffff16815260200190815260200160002081905550836000819055508260039080519060200190620000b0929190620000f3565b5081600460006101000a81548160ff021916908360ff1602179055508060059080519060200190620000e4929190620000f3565b505050505050505050620001a2565b828054600181600116156101000203166002900490600052602060002090601f016020900481019282601f106200013657805160ff191683800117855562000167565b8280016001018555821562000167579182015b828111156200016657825182559160200191906001019062000149565b5b5090506200017691906200017a565b5090565b6200019f91905b808211156200019b57600081600090555060010162000181565b5090565b90565b610f6b80620001b26000396000f3006060604052600436106100d0576000357c0100000000000000000000000000000000000000000000000000000000900463ffffffff16806306fdde03146100d5578063095ea7b314610163578063124fc7e0146101bd57806318160ddd146101ff57806323b872dd1461022857806327e235e3146102a1578063313ce567146102ee57806333a581d21461031d5780635c6581651461034657806370a08231146103b2578063869e0e60146103ff57806395d89b4114610441578063a9059cbb146104cf578063dd62ed3e14610529575b600080fd5b34156100e057600080fd5b6100e8610595565b6040518080602001828103825283818151815260200191508051906020019080838360005b8381101561012857808201518184015260208101905061010d565b50505050905090810190601f1680156101555780820380516001836020036101000a031916815260200191505b509250505060405180910390f35b341561016e57600080fd5b6101a3600480803573ffffffffffffffffffffffffffffffffffffffff16906020019091908035906020019091905050610633565b604051808215151515815260200191505060405180910390f35b34156101c857600080fd5b6101fd600480803590602001909190803573ffffffffffffffffffffffffffffffffffffffff16906020019091905050610725565b005b341561020a57600080fd5b610212610829565b6040518082815260200191505060405180910390f35b341561023357600080fd5b610287600480803573ffffffffffffffffffffffffffffffffffffffff1690602001909190803573ffffffffffffffffffffffffffffffffffffffff1690602001909190803590602001909190505061082f565b604051808215151515815260200191505060405180910390f35b34156102ac57600080fd5b6102d8600480803573ffffffffffffffffffffffffffffffffffffffff16906020019091905050610ac9565b6040518082815260200191505060405180910390f35b34156102f957600080fd5b610301610ae1565b604051808260ff1660ff16815260200191505060405180910390f35b341561032857600080fd5b610330610af4565b6040518082815260200191505060405180910390f35b341561035157600080fd5b61039c600480803573ffffffffffffffffffffffffffffffffffffffff1690602001909190803573ffffffffffffffffffffffffffffffffffffffff16906020019091905050610b18565b6040518082815260200191505060405180910390f35b34156103bd57600080fd5b6103e9600480803573ffffffffffffffffffffffffffffffffffffffff16906020019091905050610b3d565b6040518082815260200191505060405180910390f35b341561040a57600080fd5b61043f600480803590602001909190803573ffffffffffffffffffffffffffffffffffffffff16906020019091905050610b86565b005b341561044c57600080fd5b610454610c8a565b6040518080602001828103825283818151815260200191508051906020019080838360005b83811015610494578082015181840152602081019050610479565b50505050905090810190601f1680156104c15780820380516001836020036101000a031916815260200191505b509250505060405180910390f35b34156104da57600080fd5b61050f600480803573ffffffffffffffffffffffffffffffffffffffff16906020019091908035906020019091905050610d28565b604051808215151515815260200191505060405180910390f35b341561053457600080fd5b61057f600480803573ffffffffffffffffffffffffffffffffffffffff1690602001909190803573ffffffffffffffffffffffffffffffffffffffff16906020019091905050610e81565b6040518082815260200191505060405180910390f35b60038054600181600116156101000203166002900480601f01602080910402602001604051908101604052809291908181526020018280546001816001161561010002031660029004801561062b5780601f106106005761010080835404028352916020019161062b565b820191906000526020600020905b81548152906001019060200180831161060e57829003601f168201915b505050505081565b600081600260003373ffffffffffffffffffffffffffffffffffffffff1673ffffffffffffffffffffffffffffffffffffffff16815260200190815260200160002060008573ffffffffffffffffffffffffffffffffffffffff1673ffffffffffffffffffffffffffffffffffffffff168152602001908152602001600020819055508273ffffffffffffffffffffffffffffffffffffffff163373ffffffffffffffffffffffffffffffffffffffff167f8c5be1e5ebec7d5bd14f71427d1e84f3dd0314c0f7b2291e5b200ac8c7c3b925846040518082815260200191505060405180910390a36001905092915050565b61073a82600054610f0890919063ffffffff16565b60008190555061079282600160008473ffffffffffffffffffffffffffffffffffffffff1673ffffffffffffffffffffffffffffffffffffffff16815260200190815260200160002054610f0890919063ffffffff16565b600160008373ffffffffffffffffffffffffffffffffffffffff1673ffffffffffffffffffffffffffffffffffffffff168152602001908152602001600020819055508073ffffffffffffffffffffffffffffffffffffffff1660007fddf252ad1be2c89b69c2b068fc378daa952ba7f163c4a11628f55a4df523b3ef846040518082815260200191505060405180910390a35050565b60005481565b600080600260008673ffffffffffffffffffffffffffffffffffffffff1673ffffffffffffffffffffffffffffffffffffffff16815260200190815260200160002060003373ffffffffffffffffffffffffffffffffffffffff1673ffffffffffffffffffffffffffffffffffffffff16815260200190815260200160002054905082600160008773ffffffffffffffffffffffffffffffffffffffff1673ffffffffffffffffffffffffffffffffffffffff16815260200190815260200160002054101580156109005750828110155b151561090b57600080fd5b82600160008673ffffffffffffffffffffffffffffffffffffffff1673ffffffffffffffffffffffffffffffffffffffff1681526020019081526020016000206000828254019250508190555082600160008773ffffffffffffffffffffffffffffffffffffffff1673ffffffffffffffffffffffffffffffffffffffff168152602001908152602001600020600082825403925050819055507fffffffffffffffffffffffffffffffffffffffffffffffffffffffffffffffff811015610a585782600260008773ffffffffffffffffffffffffffffffffffffffff1673ffffffffffffffffffffffffffffffffffffffff16815260200190815260200160002060003373ffffffffffffffffffffffffffffffffffffffff1673ffffffffffffffffffffffffffffffffffffffff168152602001908152602001600020600082825403925050819055505b8373ffffffffffffffffffffffffffffffffffffffff168573ffffffffffffffffffffffffffffffffffffffff167fddf252ad1be2c89b69c2b068fc378daa952ba7f163c4a11628f55a4df523b3ef856040518082815260200191505060405180910390a360019150509392505050565b60016020528060005260406000206000915090505481565b600460009054906101000a900460ff1681565b7fffffffffffffffffffffffffffffffffffffffffffffffffffffffffffffffff81565b6002602052816000526040600020602052806000526040600020600091509150505481565b6000600160008373ffffffffffffffffffffffffffffffffffffffff1673ffffffffffffffffffffffffffffffffffffffff168152602001908152602001600020549050919050565b610bd882600160008473ffffffffffffffffffffffffffffffffffffffff1673ffffffffffffffffffffffffffffffffffffffff16815260200190815260200160002054610f2690919063ffffffff16565b600160008373ffffffffffffffffffffffffffffffffffffffff1673ffffffffffffffffffffffffffffffffffffffff16815260200190815260200160002081905550610c3082600054610f2690919063ffffffff16565b60008190555060008173ffffffffffffffffffffffffffffffffffffffff167fddf252ad1be2c89b69c2b068fc378daa952ba7f163c4a11628f55a4df523b3ef846040518082815260200191505060405180910390a35050565b60058054600181600116156101000203166002900480601f016020809104026020016040519081016040528092919081815260200182805460018160011615610100020316600290048015610d205780601f10610cf557610100808354040283529160200191610d20565b820191906000526020600020905b815481529060010190602001808311610d0357829003601f168201915b505050505081565b600081600160003373ffffffffffffffffffffffffffffffffffffffff1673ffffffffffffffffffffffffffffffffffffffff1681526020019081526020016000205410151515610d7857600080fd5b81600160003373ffffffffffffffffffffffffffffffffffffffff1673ffffffffffffffffffffffffffffffffffffffff1681526020019081526020016000206000828254039250508190555081600160008573ffffffffffffffffffffffffffffffffffffffff1673ffffffffffffffffffffffffffffffffffffffff168152602001908152602001600020600082825401925050819055508273ffffffffffffffffffffffffffffffffffffffff163373ffffffffffffffffffffffffffffffffffffffff167fddf252ad1be2c89b69c2b068fc378daa952ba7f163c4a11628f55a4df523b3ef846040518082815260200191505060405180910390a36001905092915050565b6000600260008473ffffffffffffffffffffffffffffffffffffffff1673ffffffffffffffffffffffffffffffffffffffff16815260200190815260200160002060008373ffffffffffffffffffffffffffffffffffffffff1673ffffffffffffffffffffffffffffffffffffffff16815260200190815260200160002054905092915050565b6000808284019050838110151515610f1c57fe5b8091505092915050565b6000828211151515610f3457fe5b8183039050929150505600a165627a7a723058207a5ae713b5b408fff29a8112c3d83146b3dd8fd959f8311c4bb8a0c8fe6c5c5a0029",
  "source": "pragma solidity ^0.4.18;\n\nimport \"zeppelin-solidity/contracts/math/SafeMath.sol\";\n\nimport \"./EIP621Abstract.sol\";\n\ncontract EIP621 is EIP621Abstract {\n    using SafeMath for uint256;\n\n    function EIP621(\n        uint256 _initialAmount,\n        string _tokenName,\n        uint8 _decimalUnits,\n        string _tokenSymbol\n    ) EIP20(\n        _initialAmount,\n        _tokenName,\n        _decimalUnits,\n        _tokenSymbol\n    ) public\n    {}\n\n    function increaseSupply(uint value, address to) public {\n        totalSupply = totalSupply.add(value);\n        balances[to] = balances[to].add(value);\n\n        emit Transfer(0, to, value);\n    }\n\n    function decreaseSupply(uint value, address from) public {\n        balances[from] = balances[from].sub(value);\n        totalSupply = totalSupply.sub(value);\n\n        emit Transfer(from, 0, value);\n    }\n}\n",
  "sourcePath": "/home/vdrg/Work/cCLP/cclp/contracts/EIP621.sol",
  "compiler": {
    "name": "solc",
    "version": "0.4.21+commit.dfe3193c.Emscripten.clang"
  },
  "schemaVersion": "2.0.0",
  "updatedAt": "2018-04-03T18:43:38.811Z"
}